:100000000C9434000C9451000C9451000C94510049
:100010000C9451000C9451000C9451000C9451001C
:100020000C9451000C9451000C9451000C9451000C
:100030000C9451000C9451000C9451000C945100FC
:100040000C945A000C9451000C9451000C945100E3
:100050000C9451000C9451000C9451000C945100DC
:100060000C9451000C94510011241FBECFEFD8E026
:10007000DEBFCDBF11E0A0E0B1E0E4E4F2E002C0F9
:1000800005900D92A431B107D9F721E0A4E1B1E0C8
:1000900001C01D92AD31B207E1F70E94A4000C949B
:1000A00020010C9400009091C00095FFFCCF80933C
:1000B000C60008951F920F920FB60F9211242F932E
:1000C0003F938F939F93AF93BF938091190190912A
:1000D0001A01A0911B01B0911C013091180123E07D
:1000E000230F2D3758F50196A11DB11D209318013E
:1000F0008093190190931A01A0931B01B0931C01E6
:100100008091140190911501A0911601B0911701F1
:100110000196A11DB11D8093140190931501A09328
:100120001601B0931701BF91AF919F918F913F91AD
:100130002F910F900FBE0F901F90189526E8230F58
:100140000296A11DB11DD2CF789484B5826084BD82
:1001500084B5816084BD85B5826085BD85B58160CB
:1001600085BD80916E00816080936E001092810049
:100170008091810082608093810080918100816004
:1001800080938100809180008160809380008091C5
:10019000B10084608093B1008091B0008160809351
:1001A000B00080917A00846080937A0080917A0018
:1001B000826080937A0080917A00816080937A00D7
:1001C00080917A00806880937A001092C10010922A
:1001D000C50087E68093C4008091C1008861809348
:1001E000C1008091C20086608093C20084B18A629F
:1001F00084B98AE2F82E00E010E08091C00087FF09
:1002000019C0C0E0D1E08991882319F00E94530001
:10021000FACF8091C00087FFFCCFC091C6008C2F21
:100220000E9453008DE00E945300C13319F485B140
:100230008F2585B90115110501F30E940000DDCF5E
:04024000F894FFCF60
:1002440044617461207265636569766564206973CD
:04025400203D200029
:00000001FF
